:020000041000EA
:1000000000B5324B212058609868022188439860DF
:10001000D860186158612E4B002199600221596106
:100020000121F02299502B49196001219960352056
:1000300000F044F80222904214D00621196600F024
:1000400034F8196E01211966002018661A6600F04E
:100050002CF8196E196E196E052000F02FF8012189
:100060000842F9D1002199601B49196000215960AB
:100070001A491B48016001219960EB211966A021F2
:10008000196600F012F800219960164914480160C1
:100090000121996001BC002800D000471248134993
:1000A000086003C880F30888084703B5996A0420EC
:1000B0000142FBD001200142F8D103BD02B5186610
:1000C0001866FFF7F2FF186E186E02BD00000240BE
:1000D000000000180000070000035F00212200005C
:1000E000F4000018222000A00001001008ED00E03C
:1000F00000000000000000000000000074B24E7A12
:1001000000200420F7010010C3010010C5010010F9
:10011000C1010010C1010010C1010010C101001097
:10012000C1010010C1010010C1010010C701001081
:10013000C1010010C1010010C9010010CB01001065
:10014000CD010010CD010010CD010010CD01001037
:10015000CD010010CD010010CD010010CD01001027
:10016000CD010010CD010010CD010010CD01001017
:10017000CD010010CD010010CD010010CD01001007
:10018000CD010010CD010010CD010010CD010010F7
:10019000CD010010CD010010CD010010CD010010E7
:1001A000CD010010CD010010CD010010CD010010D7
:1001B000CD010010CD010010CD010010CD010010C7
:1001C00000BE00BE00BE00BE00BE00BE00F04BF888
:1001D000103800BEF2EB88715CC3001084C30010BD
:1001E0003402001090A31AE700202149086006C8D5
:1001F00081F3088810471F48006800282FD10DA4FC
:100200000ECC002902D000F012F8F9E71A491B4A77
:10021000002000E001C19142FCD1194988471949E9
:1002200088471949884700BEFDE701C901C29A42C3
:10023000FBD3704784C30010C0000020040C0020D2
:10024000C8CE00100000042000000420C8CE00101A
:1002500000100420001004200000000070470B482C
:1002600003F0D8FA0047EFF30580C0B270470000F2
:1002700008ED00E0000000D0080C00204C6D0020CC
:10028000FD1C00102D070010051E00105756000021
:1002900006005250ABB3605328BC00100600525009
:1002A000861C030238BC0010060052505422A29D46
:1002B00050BC001005005250DE65F468C8CE001036
:1002C000F8B5C04610B5064C2378002B07D1054B76
:1002D000002B02D0044800E000BF0123237010BDB2
:1002E000100D00200000000040AC0010044B10B5C1
:1002F000002B03D00349044800E000BF10BDC046F6
:1003000000000000140D002040AC001010B50B4997
:100310000B4807F085FE0321042000F005FB0321B4
:10032000052000F001FB00220121042000F014FB55
:1003300000220121052000F00FFB10BDA086010066
:10034000A003002010B5194B1B68DB05FBD501E0AD
:10035000164BDB68154B9B68DB05F9D50821144B60
:100360001960144A13689B01A024E405A446634461
:10037000114C1C6058601148986011480068D860A2
:10038000D0231B068020800458610E4B1960126830
:100390009301A021C9058C4663441B69DB01F7D496
:1003A000D0231B06802292049A6110BD00C0044035
:1003B00000F004404C1200200CC0044088130000E0
:1003C000AC11002000E0044010B505F055F91920EB
:1003D00000F0F4FAD0231B06802292045A620F2107
:1003E0001A2000F0A1FA002200211A2000F0B4FA2D
:1003F00000211A2000F0CAFA07F048FE294A1368C3
:10040000E021C9010B4028490B60284B1968284B93
:100410004B4028490B4028490B60A0235B02136125
:10042000FA20800001F0ABF8012007F049FE234BD1
:100430000C2823D8224A1340C00203430C218B43CB
:10044000082213431F4A13401F4A13401F4A1340F8
:10045000012213431E4A13401E4A13608B4313604C
:1004600004318B43136010310B4313601A490B4066
:10047000902149030B43136000240FE0174B184AE7
:10048000AE21184801F0C2FC200004F021FE1649FC
:1004900004F0E2FDA300154AD0500134144B9C42F5
:1004A000F2DD10BD00C0044000D0044008C004408C
:1004B0000B0000010F00000F08D0044010801F0047
:1004C000FF87FFFF3FF8FFFFFFFFBFFFFFFFDFFFDB
:1004D000FFFF7FFFAC110020FF7FE0FF40AC00106A
:1004E000F4AC001060AC00100000F0415C12002081
:1004F00087130000014B1878C0087047B80200202D
:1005000010B50100024A034804F00EFF10BDC046BA
:10051000010400001867002000B583B002000B0042
:10052000002100913C31024807F0A4FD03B000BD5A
:10053000A003002000B583B06B46187159710221E9
:1005400001A8FFF7E9FF03B000BD10B5010080204E
:10055000FFF7F0FF10BD000010B52020FFF7F5FFFA
:100560000120FFF7F2FF2120FFF7EFFF0020FFF748
:10057000ECFF7F20FFF7E9FF2220FFF7E6FF0020D6
:10058000FFF7E3FFFFF7B6FF0138C0B2FFF7DDFF6B
:10059000054C40232370FFF7ADFFC101013120005E
:1005A000FFF7BAFF10BDC0461867002010B5FFF76F
:1005B000ADFE094B40221A70002404E0074B185D81
:1005C000FFF7C3FF0134182CF8D90020FFF798FF7C
:1005D000FFF7C2FF10BDC046B802002010AD0010EA
:1005E00070B583B27F2B1FD800291DDB154B1D78FA
:1005F000A94219DACE1707231C0034406418E4100E
:10060000760F89191940891B09B2063B8B401900E6
:10061000ED086843201801300B4BC018002A08D0A1
:10062000012A02D0531C08D070BD03780B4303701D
:10063000FAE703788B430370F6E703784B400370C7
:10064000F2E7C046B802002018670020F8B5CE4691
:10065000474680B5070088461300203BDBB25F2B7E
:1006600000D93F22203A53009A185200131D994690
:1006700000260DE0B8194346191901222A4009B293
:1006800000B2FFF7ADFF6D080134072CF2DD013633
:10069000052E05DC4B46F3180D4AD55C0024F4E723
:1006A00000260FE0BCB243469D192DB2B81D0022B2
:1006B0002900FFF795FF2000073000222900FFF7EF
:1006C0008FFF0136072EEDDDC0BCB946B046F8BD40
:1006D0002CAD001070B5040006E00C4B00221A602F
:1006E0000B4A1368083313602278002A0CD00134B7
:1006F0000A2AF2D0064B1978044D2878FFF7A6FF96
:100700002B6808332B60EFE770BDC046DC1100207A
:10071000E0110020C000014B18607047DC11002080
:10072000C000014B18607047E0110020F0B5DE46B4
:1007300057464E464546E0B56C4CA544FFF7E6FDEE
:10074000FFF734FF6A48FFF7C5FFFFF705FFFA2000
:10075000800000F014FF002300220021654807F00C
:10076000BFFC0190FFF730FEA4E0634A02AEB4463E
:100770006244D45C00250019694101335F4A934209
:10078000F3DD04F0C9FC5E4904F061FC071C00269F
:1007900010E0594B02AA94466344985D04F092FC21
:1007A000391C04F04AFCB300564A02A98C46624444
:1007B000D0500136514B9E42EBDD0020FFF7AAFFDF
:1007C0005148FFF787FFFFF7C7FE12AA4D4902AB5A
:1007D0009C466144019807F01DFD0027002300930B
:1007E00000239A4600E00137484B9F421ADC12AEC4
:1007F000FB009B469959081C04F02EFC81465E4480
:100800007068011C04F028FC011C484604F01AFC26
:10081000061C011C504604F04FFC0028E3D0009752
:10082000B246E0E7009B9A00394BD658394B029309
:100830000C22002103A804F077FD374B06930C220D
:10084000002107A804F070FD301C04F073FC0600C2
:100850000F00324B984602000B0041460AA802F0F6
:10086000ADFF32003B0041460AA802F0A7FF504608
:1008700004F060FC02000B0041460EA802F09EFF4F
:100880000AA902A809F094F80EA906A809F090F8A0
:100890000020FFF73FFF0320FFF742FF02A8FFF70A
:1008A00019FF0020FFF736FF0420FFF739FF06A8E5
:1008B000FFF710FF0020FFF72DFF0020FFF730FFAC
:1008C0001748FFF707FF0020FFF724FF1548FFF741
:1008D00001FFFFF741FE084802AB9C466044FFF76A
:1008E00031FD00230020002148E7C046CC01FFFF76
:1008F000A4AC001088130000A0EA000087130000D9
:1009000000409C45809C0000E8AC0010C30900003A
:100910005C1200206620000041200000ECAC0010BA
:10092000B0AC0010E0AC001010B58300084A94464B
:1009300063441C6840226240C0241440802252015B
:1009400013431C60C000034B9C466044416010BDD3
:1009500004C001400040014080000B4B9C466044B5
:1009600000290DD00823002A0CD00422134302686A
:1009700053400C2213408022520110430360704701
:100980000023F0E70022F1E704C00140002909D06C
:100990008000094B9C46604480239B011843402300
:1009A000036070478000044B9C466044C0239B0159
:1009B000184340230360F4E704C0014010B501234D
:1009C0008340D0221206936293610521FFF7ACFFAA
:1009D00010BD0000EFF3108072B6034B1B68002BB4
:1009E000FBD0BFF35F8F70472C0100D0BFF35F8F48
:1009F000024B00221A6080F3108870472C0100D04F
:100A0000F8B505000C001600FFF7E4FFE308EF1847
:100A1000EA5C072121401300CB40DB0707D4012308
:100A20008B40DBB213433B70FFF7E0FFF8BD2100C2
:100A3000300001F009FAF0B583B00600019114000E
:100A40001F00FFF7C7FF050000E00134BC420ED8CD
:100A5000E208B018B15C072222400B00D340DB074C
:100A6000F3D401239340DBB21943017001E0012468
:100A700064422800FFF7BAFF002C02DB200003B01D
:100A8000F0BD019B002BF9D0089801F0DDF90000C2
:100A9000002307E0054A9A189200BFF35F8F0021F8
:100AA000116001331F2BF5D97047C0464000003458
:100AB000054A1078431CDBB21370172B02D91300C0
:100AC00010221A707047C046B902002000B583B0EA
:100AD0000100044B00931F2318220348FFF7ABFFCC
:100AE00003B000BD74AF0010B0110020034B1B68B1
:100AF00002201840431E9841C0B2704700C0064013
:100B000070B504000D00062001F0BCFAC0002900F9
:100B100002F0D8FE0300C6097F20184001304008CB
:100B2000002E05D00D4B9E4214D83500060000E083
:100B300001256562A6622C348020800104430023D5
:100B40002360062001F09EFA8000A901891902F0B5
:100B5000B9FE70BD0026024DEBE7C046FEFF000067
:100B6000FFFF0000002909D00A22064B9C46604482
:100B7000434258414000044BC25270478022520009
:100B8000F3E7C0460080FCBF386D002070B505005B
:100B90000C00062001F076FA002829D0164B9D4261
:100BA00027D08022D203154B1A60154B1A60154BC3
:100BB0009B6811009943FAD100212800FFF7D2FF6A
:100BC00021002800FFF79CFF2C002C34E96A6022EA
:100BD0004A406E21114080225201224311600A4B8B
:100BE0002B6380239B01234310221A600323AB64F1
:100BF00070BD80221204D6E70080034000E0004070
:100C000000F0004000C000400103000040BF002091
:100C10000021704770B505000C00080000F040FD91
:100C2000200000F015FE0849200000F065FDFFF7E8
:100C30003FFF064B9C466044800068602C75A40012
:100C4000034BE55070BDC046250F00104000003436
:100C50000867002070B5002921D003681B7B9942EA
:100C60001DD8164B9C466144090183689C4661442B
:100C70000C684968002A18D003681B7B9A4214D874
:100C800083680E488446624412019A1815685368B6
:100C900001208B4201D80ED00020C0B270BD084B9D
:100CA000084A3921084801F0B1F8054B054A3921B5
:100CB000054801F0ABF8A542EFD8EDE7FFFFFF0FC5
:100CC000D4AF001000B20010A4AF001010B500297E
:100CD0001ED0037B99421BD84B005B18033B046872
:100CE000A4466344002919D0002A1DD0914221D086
:100CF000002A25D0047BA24222D804685000801824
:100D0000033820188170197800291FD11A7010BD7E
:100D1000104B114A6921114801F078F8104B114A23
:100D200070310E4801F072F80F4B0E4A71210B48DA
:100D300001F06CF80D4B0B4A7221084801F066F87F
:100D4000044B054A6921054801F060F841701A70AA
:100D5000DDE7C046F8AF00106CB2001014B0001010
:100D600054B0001048B2001060B000106CB0001019
:100D700070B506000D001400002914D0002A14D00C
:100D8000806873689847002806D022002900300048
:100D9000FFF79CFF280007E02A0021003000FFF742
:100DA00095FF200000E0100070BD0800FCE7000087
:100DB000F0B583B00500009201930AAB1C780BAB31
:100DC0001F78002C26D003685A7B944207D1012358
:100DD000002B19D1002C3BD1200003B0F0BD002C1A
:100DE0000CD01A7B944209D81A6863001B19033B84
:100DF000D3189B78002BEBD00123E9E73E4B3F4A09
:100E000069213F4801F002F83E4B3F4A62213F48CA
:100E100000F0FCFF03689C7B002CDBD012D01A7B17
:100E200094420FD862001219033A19688C46624442
:100E300051789973002900D1D973002393705370AE
:100E40001370C7E72C4B2D4A69212D4800F0DEFFB7
:100E5000002C3AD02B681B7B9C4236D82C4BE318D5
:100E60001B01AA6894466344009A1A60019A5A606A
:100E7000089A9A60099ADA602E68002C2BD030D03C
:100E8000337B9C422DD863001B19033B3268944688
:100E9000634400229A705A701A70717B22003000ED
:100EA000FFF766FF7073844200D095E7287D009AB3
:100EB000019B00F069FC061E01D0002F17D00C9B8F
:100EC000002B00D188E71E7086E7124B124A3921A9
:100ED0000E4800F09BFF114B114AA621084800F074
:100EE00095FF054B054A6921054800F08FFF2868EA
:100EF000210000F087FEE2E7F8AF00106CB20010AE
:100F000014B0001084B0001078B20010A4AF00102C
:100F1000FFFFFF0FD4AF001000B20010A0AF001011
:100F20005CB20010F0B5DE4657464E464546E0B589
:100F30008DB00B90002399468200AD4BD55850E000
:100F4000AC4BAD4A3921AD4800F060FF002901D11A
:100F500000286ED10021504600F04AFEB84219D157
:100F60002268636808920993A3689A46E3689B46DF
:100F70005346002B14D0002F18D02B681B7B9F42A8
:100F800014D87B1EEA68D35C99461B02184328617B
:100F9000002019E09A4B9B4A8921984800F036FFBF
:100FA000994B984A8D21954800F030FF914B974A14
:100FB0003E21924800F02AFF00239B460023002494
:100FC000089309949A4600206B68BFF35F8F002254
:100FD0001A6088F310885346002B37D1002800D1BF
:100FE000FFE000F069FB069007916A68EFF3108854
:100FF00072B61368002BFCD0BFF35F8F2B689A4644
:101000005F7B002FD8D09BD01B7B9F4298D8804B12
:10101000FC182401AB689C4664442268636808920B
:10102000099310001900069A079B801A994100291C
:101030008CDD089A099B0B9800F0A6FB00239B46C9
:1010400000230024089309949A46BDE74B461E02EC
:101050003E4359463000D047069007916A68EFF347
:10106000108472B6136859424B41D9B2002BF9D1A2
:10107000BFF35F8F079B002B21DB079B002B48DD15
:101080002B69002B4BD0B3426AD100F015FB020054
:101090000B0010001900069A079B12184B41994249
:1010A00066D863D00021049101310391029759461B
:1010B0000191514600912800FFF77AFE47E02B6925
:1010C000002BDAD0B34217D1089A099B06980799EA
:1010D000121A8B4108980999994216D812D000210A
:1010E00004910131039102975946019151460091B3
:1010F0002800FFF75DFE2AE0464B424A9C213F480C
:1011000000F084FE08999142E9D901225242D31796
:10111000E5E7069A079B002B01D1002AB0D12B6886
:10112000002F3FD05A7B974226D10121002939D187
:10113000DA7B002A3CD1DF73002F4CD02B681B7B5D
:101140009F4248D8E9687B1ECA5C0132CA5400231A
:101150002B616A68BFF35F8F136084F3108840E7E8
:101160002C4B284A9F21254800F050FE904299D9E7
:1011700001225242D31795E7002F0DD01A7B9742D8
:101180000AD87A00D219033A1868844662449278E1
:10119000002ACBD00121C9E71F4B204A69212048F2
:1011A00000F034FE1F4B204AF7211D4800F02EFEB0
:1011B000002A0AD0197B8A4207D851008A18033ABC
:1011C00019688C4662445770B5E7134B134A69217E
:1011D000134800F01BFE074B0C4A3E21074800F065
:1011E00015FE0DB0F0BCBB46B246A946A046F0BD08
:1011F00008670020D4AF001000B20010A4AF0010A8
:10120000ACB00010E4B10010C4B0001024B2001063
:10121000FFFFFF0FD0B00010F8AF00106CB200104D
:1012200014B000100CB1001038B2001010B5084B0B
:101230005B68002B00D010BD054C2300054A10212F
:10124000206800F0F5FB03212000FFF7E3FCF2E744
:10125000BC020020550C001010B5064B5B68002B3B
:1012600001D0044810BD044B044A5921044800F041
:10127000CDFDC046BC02002030B100100CB2001001
:10128000A4AF0010F0B5DE4657464E464546E0B5E1
:101290008BB0804616001F00149B9A46159B9946FA
:1012A00016AB1B789B461F2302AA94466344002278
:1012B0001A7001E016001F0043465A68EFF31084CD
:1012C00072B6136859424B41D9B20791002BF8D13D
:1012D000BFF35F8F1F3302AA944663440493002335
:1012E000039302934B4601935346009332003B0015
:1012F0004046FFF75DFD031E2ED1020041464968BE
:10130000BFF35F8F00250D6084F31088002B48D059
:101310001F2302A98C4663441B78002B2ED1120296
:101320001043002B3FD05B46002B3CD04946D047B2
:1013300004000D0003000B433CD0002920DA3200EA
:101340003B00121BAB419F4202D8B3D19642B1D9A8
:1013500001267642F717AFE7002809D04246126807
:10136000127B904204D8421E4146C9688A5CC5E798
:10137000114B124A3E21124800F048FD0798D0E771
:1013800000F09AF902000B00A4185D4126002F001E
:10139000A94202D890D1A0428ED901267642F717F1
:1013A0008AE7012040420BB0F0BCBB46B246A946DA
:1013B000A046F0BD0798F6E7D4AF001024B20010A5
:1013C000A4AF0010F8B504004268EFF3108572B6C0
:1013D000136858424341D8B2002BF9D1BFF35F8F55
:1013E000CBB22268567BB3421BD10120002847D0E4
:1013F000206988422BD0090AC9B2002B2DD0206861
:10140000007B834229D8581EE668305C88422AD087
:1014100000206368BFF35F8F00221A6085F3108895
:10142000F8BD002B0DD0167BB3420AD85E00F6182B
:10143000033E1768BC466644B678002ED6D001201D
:10144000D4E7124B124A6921124800F0DFFC124B1C
:10145000124AFB21124800F0D9FC124B124A3E21DD
:101460000F4800F0D3FC1900100000F0CBFB00285F
:10147000CFD181210D4B094A4900094800F0C6FC33
:1014800023698B42C5D100232361C2E7F8AF001066
:101490006CB2001014B0001054B10010CCB10010A8
:1014A000A4AF0010D4AF001024B2001078B1001027
:1014B000F0B585B006000F00FEF7D5FE00281AD162
:1014C00006246442E517A4197D41BD4202D803D128
:1014D000B44201D90024002500F0EEF822002B00D0
:1014E000121A8B41002B0BDC08D03000390000F0C1
:1014F000EFF805B0F0BD134800F0A6FC002AF4D0C8
:10150000FFF7AAFE0023029301930F4B00932200E2
:101510002B00FFF7B7FE002806DAE6E7002300E01D
:101520000023002BE1D120BF084B5B6A9D42F7D816
:101530000649896AA14203D29D42EFD00123F0E718
:101540000123EEE77CB100100D0C001000400540B7
:1015500070B504000D0000F0AFF802000B00200091
:101560002900801859418B4205D802D0FFF7A0FF0F
:1015700070BD8242FAD901204042C117F6E710B58A
:10158000FA2292000023002103F03AFDFFF7E0FF6A
:1015900010BD000070B584B005000C00FFF75CFEC4
:1015A000002302930193194B00932A002300FFF7B5
:1015B00069FE061E12DC164B5B6A9C4209D8144A6F
:1015C000926AAA4208D29C4201D0012002E0002087
:1015D00000E0002004B070BD0120FBE720BFFFF752
:1015E0003BFE3100FFF7EEFE094B5B6A9C4209D8D7
:1015F000074A926AAA4207D29C4201D00120E9E739
:101600000020E7E70020E5E70120E3E70D0C0010EC
:101610000040054070B5EFF305833F2018401038B7
:10162000EFF3108C72B6194B1B68002BFBD0BFF385
:101630005F8F012319008140154A5163154A1278C2
:101640001400C440234214D0114B5C6A8300124D35
:101650005B599C4206D38300104C1B598A430D49A9
:101660000A7007E00A4A031D9B009958995000230D
:1016700000E00023BFF35F8F044A002111608CF368
:101680001088002B00D0984770BDC046280100D0BC
:1016900000400540486D0020286D00209C1100206E
:1016A00010B50100024A0348FFF7AAF910BDC04671
:1016B00098B20010456D0020044B5B6A034A906AA3
:1016C0001900536A9942F9D17047C046004005405D
:1016D000084B5B6A01E0074B5B6A8B42FBD301E07E
:1016E000044B5B6A8B4203D1024B9B6A8342F7D364
:1016F0007047C0460040054070B504000D00EFF390
:10170000108672B61B4B1B68002BFBD0BFF35F8F9C
:10171000002D1CD0200000F01FFE174B83420BD081
:101720001900200000F020FE0121200000F004FE3E
:101730000123A340114A1360A400114BE550BFF3ED
:101740005F8F0C4B00221A6086F3108870BDA200D8
:101750000B4B0021D1500122A2400A490B78934340
:101760000B700549200000F029FE0021200000F048
:10177000E3FDE4E7280100D01516001038600540AD
:101780009C110020486D0020F8B5CE46474680B534
:10179000040016001D00FFF78FFF8D4202D844D1D0
:1017A000864242D9EFF3108972B6224B1B68002B98
:1017B000FBD0BFF35F8F0127A7401F4B5F63FAB2D7
:1017C00090461E490A78404602430A70221D920044
:1017D000D650A4001A4AA5501B6A3B4212D1164BA0
:1017E0001B6C3B4208D00020BFF35F8F114B0022DF
:1017F0001A6089F3108819E0124B134AB22113487A
:1018000000F004FBFFF758FF8D420CD801D186424F
:1018100009D8094B1F625F63084A137841468B431E
:1018200013700120E0E70020DEE70120C0BCB946CC
:10183000B046F8BD280100D000400540486D0020AA
:10184000286D0020BCB2001018B30010E0B20010E8
:10185000EFF3108C72B60B4B1B68002BFBD0BFF361
:101860005F8F01238340084A136208490A789A432C
:101870000A70BFF35F8F034B00221A608CF310884D
:101880007047C046280100D000400540486D002048
:10189000024B9C466144890001607047400000345F
:1018A00010B50400FFF704F901002000FFF7F0FF76
:1018B000FF232371BFF35F8F10BD10B5FFF7E8FF63
:1018C000BFF35F8F10BD10B504000120FFF7FEF8D5
:1018D00001002000FFF7F1FF10BD000010B5002946
:1018E0001ED0037B99421BD84B005B18033B046856
:1018F000A4466344002919D0002A1DD0914221D06A
:10190000002A25D0047BA24222D804685000801807
:10191000033820188170197800291FD11A7010BD62
:10192000104B114A6921114800F070FA104B114A0E
:1019300070310E4800F06AFA0F4B0E4A71210B48C5
:1019400000F064FA0D4B0B4A7221084800F05EFA71
:10195000044B054A6921054800F058FA41701A7095
:10196000DDE7C046F8AF0010B0B4001014B00010AE
:1019700054B000109CB4001060B000106CB00010A7
:1019800070B506000D001400002914D0002A14D0F0
:10199000806873689847002806D02200290030002C
:1019A000FFF79CFF280007E02A0021003000FFF726
:1019B00095FF200000E0100070BD0800FCE700006B
:1019C00010B50023437301338373037BC373012377
:1019D000027B9A4214D9002B0CD0027B934209D887
:1019E0005A00D218033A01688C4662440133DBB2D4
:1019F0005370EDE70B4B0C4A69210C4800F006FAD6
:101A0000002A09D0924207D8016853009A18033A75
:101A10008A180023537010BD024B034A6921034802
:101A200000F0F4F9F8AF0010B0B4001014B00010DA
:101A300010B5017342608360FFF7C2FF10BD000064
:101A400070B50400081E00D170BD002934D0237B7E
:101A5000994231D84B005B18033B2268944663449B
:101A60005A78002AF0D02DD0237B9A422AD85300EE
:101A70009B18033B21688C4663445D7800215970B4
:101A8000002825D0237B984222D843001B18033B13
:101A900021688C4663440021597001002000FFF743
:101AA0006FFF060029002000FFF7CAFF0200310087
:101AB0002000FFF765FFC7E7084B094A692109487D
:101AC00000F0A4F9054B064A6921064800F09EF98A
:101AD000024B034A6921034800F098F9F8AF00105F
:101AE000B0B4001014B0001070B505000C00160062
:101AF000002928D02DD0037B99422AD84B005B18AF
:101B0000033B0268944663445A78002A27D19A78A6
:101B1000002A2AD11978FFF793FF0300002E03D083
:101B2000EA7B002A27D1EC73002B37D1002C49D057
:101B30002B7B9C4246D82B6861000C19033C1C1976
:101B40000023637070BD224B224A3821224800F0E6
:101B50005DF9224B224A6921224800F057F9224BB5
:101B60001C4A3A211C4800F051F9204B194A3B21EC
:101B7000194800F04BF9002A0AD0297B8A4207D87D
:101B800051008A18033A29688C4662445470CAE7A7
:101B9000124B134A6921134800F038F9002B0BD07F
:101BA0002A7B934208D843001B18033B2A689446BB
:101BB000634400229A70B9E7084B094A6921094831
:101BC00000F024F9054B064A6921064800F01EF989
:101BD000C4B3001088B40010CCB30010F8AF0010EC
:101BE000B0B4001014B00010FCB3001024B4001006
:101BF00070B504000A00457B2900FFF775FF60738C
:101C0000280070BD70B50400002967D0437B8B426B
:101C10000ED0002911D0037B99420ED84B005B18DF
:101C2000033B0268D0188378002B0CD1002056E0CB
:101C30000121FFF7DDFF012051E0294B294A6921ED
:101C4000294800F0E3F8002B20D0227B93421DD8D6
:101C50005A00D318033B2268D2182568EB5C8B42EC
:101C60001AD0002B1BD0227B934218D85A00D318CD
:101C7000033B2268D21853788B4216D0002BF0D148
:101C80001A4B1B4A67211B4800F0C0F8144B154A39
:101C90006921154800F0BAF84378137007E0104B3B
:101CA000104A6921104800F0B1F8437853700023BE
:101CB0008370437001222000FFF716FF0200617B52
:101CC000814205D02000FFF75BFE6073012006E033
:101CD000094B074A6D21074800F098F8002070BDB5
:101CE000F8AF0010B0B4001014B0001048B40010E9
:101CF00070B40010CCB3001050B4001070B5234B7A
:101D0000234A1A60234B244A1A60244B9A68224BB8
:101D10009343FAD1224C01E008CC9847214B9C42D6
:101D2000FAD300F01DF91B4B1F4A1A601B4B9B682E
:101D3000DB43DB01FAD11D4B40229A675A671A67D1
:101D4000DA661B4C03E02000FFF7AAFD0834194BAC
:101D50009C42F8D3184CA168184DC022280003F00B
:101D6000E9FAA560FEF77FFA002800D000BEFEF772
:101D70008FFE00F085FCFFF759FA114C01E008CC0A
:101D80009847104B9C42FAD370BDC04600E000401B
:101D9000BFCDFFFF00F00040FE7F3C0000C00040D0
:101DA000F00B0020000C0020FFFFFF0100F00140BD
:101DB000E80B0020F00B002000ED00E00000002008
:101DC000000C0020040C002000BEFDE703000A4ABE
:101DD0001268002A08D0084A1068C318074A9342BC
:101DE00006D2054A13607047034A05491160F2E7BD
:101DF00001204042F7E7C0467C600020000004203C
:101E00004C6D002010B5FFF7DFFF000010B582B069
:101E10000C001900002A0CD0084B002A0BD00192AC
:101E2000009323000200064803F01AFC0120FFF78C
:101E3000CBFF044BF1E7034AF1E7C046BCB4001006
:101E4000CCB4001030C300100FB400B583B0084804
:101E500003F0D6FB049B002B07D005A901911800C5
:101E600003F0DCFB034803F0CBFB0120FFF7ACFFE2
:101E7000FCB4001058C30010F8B5D646474680B5EC
:101E800006000D001700089A934243D3190E18025A
:101E9000089A002301F05CFD80467400A419A40098
:101EA0002A4B9C4664446368834200D26060331FBF
:101EB000DBB29A46012B33D9C0239B0123438022F6
:101EC00012011A60B300224A9958002905D05069BE
:101ED00001F0F8FC01300138FDD17F012268574044
:101EE000E022174080235B0123431F605246012AF2
:101EF00021D980239B012343802212011A6043468B
:101F00006360B600124B089AF2500120C0BCBA467A
:101F1000B046F8BD0F4B104A2E211048FFF776FF50
:101F2000012DC9D1C0239B01234303221A60A3685A
:101F3000DB07FCD5D1E72168694003220A401A601B
:101F4000A2680123AB401342FAD0D2E700800040E0
:101F5000B41100200CB500105CB5001020B50010C5
:101F600030B583B00C2000F093F8FEF7BFFD0028D9
:101F70000DD0002304E09900334A344888500133DF
:101F8000092BF8D9304B324A5A6203B030BD314B7D
:101F900000229A6700F0EAF82F4B01221A602D4BBD
:101FA0005B6C012BFBD12D4B03221A60294B9B6BE1
:101FB000012BFBD1C0239B01294A1360294A1360DE
:101FC000294B9A68C0239B019343F9D102240094C2
:101FD0000633264A0121264800F0DCF80094052348
:101FE000244A0121244800F0D5F8244B0093002214
:101FF00002210420FFF740FF214D00952B00002215
:1020000001210520FFF738FF104C00942300002227
:1020100000210720FFF730FF009423000022002159
:102020000820FFF729FF0A4B00932300002200211C
:102030000920FFF721FF00952B0000220021062038
:10204000FFF71AFFA1E7C046B4110020006CDC02C4
:102050001BB70000008000403CB0004030B00040A2
:1020600000E0004000F0004000C00040002F685930
:102070000080024000389C1C00C00240001BB700DA
:10208000405973078000014BC0587047B4110020BD
:1020900080239B000343014AD362704700800540C0
:1020A000024B1A68024B5A607047C0460067002016
:1020B0000080054010B50200144B8020C005186058
:1020C000134B1448186000291BD0134BE021C9049E
:1020D0001960002A00D1323253019B1A98008018EF
:1020E00000010E4B186080235B04984202D30B4B17
:1020F0000B4A1A60FFF7D4FF074B8022D2051A6003
:1021000010BD024BE021C9041960E2E700B00540B0
:1021100008200140FCFF010000A0054000670020EE
:10212000FFFFFF0010B5030010000C4A8024E405F7
:102130001460002B0DD001221343094A094CD461CD
:10214000094C5C401462516293620021FFF7B2FFB8
:1021500010BD034B0022DA61F7E7C04600B005402E
:1021600000800540D3C007B02D3FF84F064BAA2290
:1021700012011A602F22DA60044B054A1A60024BE2
:102180005B68002BFBDA70470040024000600240B1
:1021900000B0FA00F0B5CE4600B50400894616003E
:1021A0001D0001235B424360002383600C2001F08B
:1021B00089FB07004B46236043011B1A9901C91A8A
:1021C000C90009188901300001F07CFB0200103AB7
:1021D00098235B009A4220D86B1E062B23D8069BBF
:1021E000013B062B1FD8069B9D4222D33209BA42DF
:1021F00025D3A060221DC0239B01134321221A6016
:102200002268002AFCDA2D04069A16033543E5609D
:1022100008221A6080BCB946F0BD0C4B0C4A1A214A
:102220000C48FFF7F3FD0C4B094A1D210948FFF745
:10223000EDFD0A4B064A23210648FFF7E7FD084B50
:10224000034A27210348FFF7E1FDC0466CB50010A3
:102250003CB6001088B50010BCB5001008B60010E0
:1022600020B60010074B9B68103080001950BFF358
:102270005F8FBFF35F8F044B0021196082F31088DA
:102280007047C04600ED00E0240100D010B5091AE7
:1022900004394808090B05D14005400D044B18438B
:1022A00080B210BD034B044A8C210448FFF7AEFDF9
:1022B00000E0FFFF48B6001048B8001058B6001004
:1022C00010B5091A04394C08090B08D14905490D04
:1022D000064A11430180064B2343438010BD054B42
:1022E000054A94210548FFF791FDC04600F0FFFF25
:1022F00000F8FFFF48B600101CB8001058B60010D8
:1023000001238340034A10681840431E9841C0B21D
:102310007047C04600E100E0002904D0034B18607C
:10232000034B18607047034B1860FBE780E200E046
:1023300000E100E080E100E010B5012383401800D7
:10234000FFF7EAFF10BD000001238340014A13603C
:102350007047C04600E200E0024B9B6810308000EE
:10236000C058704700ED00E070B504000D00EFF3B9
:10237000108672B60C4B1B68002BFBD0BFF35F8F2F
:102380002000FFF7E9FF094B984201D0A84205D190
:10239000320029002000FFF765FF70BD044B054A9D
:1023A00070210548FFF732FD240100D0CD01001057
:1023B0008CB6001064B8001058B60010F0B5CE46C8
:1023C000474680B583B006000D00EFF3108872B663
:1023D000574B1B68002BFBD0BFF35F8F554B9A68A0
:1023E00034001034A300D758534B9F4207D0AF425C
:1023F00000D19BE00197514BFB1A2F2B09D9424684
:1024000039003000FFF72EFF03B0C0BCB946B0461C
:10241000F0BD3000FFF774FF814600213000FFF768
:102420008BFFBFF35F8FFDF71EFF002801D08442B2
:1024300019D10123019C9C43230040495B1A5B4155
:1024400048495943090D49B20022A368AB4212D052
:102450000622A256002A0DDB53009B189B00220087
:10246000364CE418F1E72021354B364AFF31364827
:10247000FFF7CCFC2200AB4251D106256557002D59
:1024800039DB6B005B199A002C4B9B189A68A26091
:10249000DA79E27106229A56A2719B795BB2002B1F
:1024A00010DABD200002A0806B005B199B00234A5C
:1024B000D318264A11789971157049463000FFF7F4
:1024C0003BFF9CE7201D6B005B199B001B4A9B1880
:1024D0001A1D9B88D90A1C2907D15B055B1502339D
:1024E00059005118FFF7D2FEDDE7194B194A9A211E
:1024F0001548FFF78BFC00280CD1002A08D0FF23D9
:102500009371154B9380114B1A78A2711970D4E70F
:10251000094FF8E7201D1149FFF7D2FECDE7AA21A8
:102520000F4B084A49000848FFF770FC024F66E766
:10253000240100D000ED00E0CD010010E4020020F5
:10254000A0B7001034B8001058B60010466D002037
:1025500088B7001054B8001000BDFFFF1E03002014
:10256000C4B70010AAAA000010B5032304009C43BE
:10257000064A9446644422681840C000FC338340F5
:102580009A43130081400B43236010BD00E400E038
:1025900070B50400012606432D4BF31A2F2B28D8C3
:1025A000FDF761FE00282BD0EFF3108C72B6294B9B
:1025B0001B68002BFBD0BFF35F8F2300244D5B1BF8
:1025C0005B412E4D5D432D0D6DB2234B9B6880000A
:1025D0001B58B3421BD00022032A32D853009B1849
:1025E0009B001B49CB189B795BB2AB421FD00132D9
:1025F000F2E77221194B1A4AFF311A48FFF706FC1D
:10260000BA21194B164A49001648FFF7FFFB124B37
:102610009B68164A1A50164B1A78A2711D70BFF3A8
:102620005F8F0C4B00221A608CF3108870BD08007D
:102630005300991889004118FF268E710D4A8A802F
:10264000E9E786210C4B064AFF310648FFF7DEFB1F
:10265000E4020020240100D000ED00E0CCB700101F
:1026600000B8001058B60010F4B70010CD010010EB
:10267000466D002000BDFFFF48B40010AAAA00006C
:1026800010B5002404E080212000FFF76DFF013425
:102690001F2CF8D910BD9A4200D288547047704759
:1026A00010B5002802D00B684968984710BD01009A
:1026B000002007E083001B185B00501C08601078A6
:1026C000C01830380A681378303BDBB2092BF1D9D7
:1026D0007047F0B5DE4657464E464546E0B583B0F6
:1026E00093461F000C9B9A460D9C0E9B99460F9B90
:1026F0009B0703D0B8460F00060022E00192A346D4
:1027000088464E46B9460700B44207D2551C4B4690
:1027100041462020B84701342A00F5E73D004F46E6
:102720005C46019B9B46B1464646B84637002E00A4
:1027300007E0013C551C5346185D43463900B0473D
:102740002A00002CF5D135003E0047460F9B9B0721
:1027500007D4100003B0F0BCBB46B246A946A04661
:10276000F0BDB0464E46B9462F005D46531BB342FE
:10277000EFD2541C4B4641462020B8472200F5E7D3
:10278000F0B5CE46474680B585B0944698460C9D38
:102790000D9C0EAB1B789946109A119B129EB707A1
:1027A0001CD4002B0CD0F7070AD54F46002F02D1BE
:1027B0000C37374204D0013B02E030272F5501345B
:1027C000944201D21F2CF8D9F70707D59C4205D2B5
:1027D0001F2C03D830272F550134F5E7F70615D500
:1027E000770505D4002C03D0944224D09C4222D0FB
:1027F0000F9A102A2BD00F9A102A30D00F9A022A43
:1028000035D01F2C02D830222A5501341F2C05D870
:102810004A46002A31D02D222A55013403960293CC
:102820000194009543466246FFF753FF05B0C0BCD4
:10283000B946B046F0BD621E012C06D00F9F102F86
:1028400001D01400D4E7023CD2E71400D0E7B2066E
:10285000D1D41F2CCFD878222A550134D1E7B20623
:10286000CCD51F2CCAD858222A550134C9E71F2CB1
:10287000C7D860322A550134C3E7720703D52B222B
:102880002A550134CAE73207C8D520222A55013417
:10289000C4E7F0B5DE4657464E464546E0B593B030
:1028A00081468A46089209931CAB10CB1B789B4645
:1028B0001E9D219B9846002C03D1102342469A432B
:1028C00090468023DB0046461E4042461A4212D004
:1028D000002C22D000260EE03033D9B2771C0AAB90
:1028E00099552900200000F0EDFFAC4216D31F2FB0
:1028F00014D83E0004002900200000F0E3FFCBB212
:10290000092BE9D94246920605D54121C918C9B219
:102910000A39C9B2E2E76121F8E727004346069386
:10292000209B05931F9B049303955B46029301979D
:102930000AAB0093099B089A51464846FFF720FFCF
:1029400013B0F0BCBB46B246A946A046F0BDF0B5F8
:10295000DE4657464E464546E0B595B0089009918B
:102960000A920B931E9E1F9C20AB1B789B46229BBA
:102970009946239D269B9A463300234303D1103367
:1029800052469A4392468023DB0057461F405246E8
:102990001A4219D0330023432DD0002714E03033DE
:1029A000DAB27B1C98460CABDA554A462B00300055
:1029B000210000F0CDFFA5421FD819D043461F2BA0
:1029C0001BD8474606000C004A462B003000210069
:1029D00000F0BEFFD3B2092BE1D95246920605D5CD
:1029E0004122D218D2B20A3AD2B2DAE76122F8E72B
:1029F000B145E3D901E00023984653460693259B51
:102A00000593249B04934B4603935B4602934346F2
:102A100001930CAB00930B9B0A9A09990898FFF756
:102A2000AFFE15B0F0BCBB46B246A946A046F0BD0D
:102A3000F0B5DE4657464E464546E0B591B0834672
:102A40008A460C9298461A9C08941B9D0995220070
:102A50002B002000290001F0FEF9002800D0E5E05D
:102A600001225242D74B2000290001F0EFF9002843
:102A700000D0DBE001225242D34B2000290001F0BC
:102A8000CFF9002800D0D1E000220023089D2800C3
:102A9000099E310001F0C4F9002800D0DDE008985B
:102AA0000999069007918023DB001E9A1A400D9227
:102AB0001E9A1A4201D106231C9306980799040016
:102AC0000D000A000600024300D1D1E0080D4005C8
:102AD000400DBE4CA44660440A03120BBC4B13438A
:102AE0001F0001F0CBF9BB4ABB4B01F057F9BB4AC1
:102AF000BB4B01F041F904000D000022B94B30003E
:102B0000390001F030F9B84AB84B01F047F902003A
:102B10000B002000290001F02FF901F0C7F98146D0
:102B200001F0ACF904000D00B14AB24B01F036F9E6
:102B30000022B14B01F020F901F0B8F90600AF4ACC
:102B4000AF4B2000290001F029F904000D003000EE
:102B500001F094F9AB4AAC4B01F020F902000B00F4
:102B60002000290001F0FFF804000D0002000B0016
:102B700001F014F90A900B91A44BF31800261F05DD
:102B800022002B002000290001F0F6F80E900F9192
:102B900022002B0000208021C90501F0E4F8040088
:102BA0000D0000229A4B0A980B9901F0EEF80022D2
:102BB000984B01F0E1F802000B000A980B9901F024
:102BC000E4F80022944B01F0D7F802000B000A98B9
:102BD0000B9901F0DAF802000B002000290001F047
:102BE000CBF802000B000E980F9901F0CEF80022EE
:102BF000774B01F0C1F832003B0001F0CFF806003E
:102C00000F0004000D00069A079B01F01FF9002831
:102C100030D001235B429C46E14400227D4B3000D2
:102C2000390001F0B2F804000D0023E01E9B04936C
:102C30001D9B03931C9B0293089A099B009201938E
:102C400043460C9A5146584600F0FCF811B0F0BCCF
:102C5000BB46B246A946A046F0BD00230024069319
:102C60000794069580231B069C46664407961AE740
:102C7000002399464B466333C62B1ED804261E9B61
:102C80001B0526D52B0023430FD0644A644B0698BE
:102C9000079901F0D3F8002879D00022614B0698FB
:102CA000079901F0BDF8002871D01C9B4B4506DD4B
:102CB0004A46981A431E1C9303E00526DFE70023CB
:102CC0001C938023DB001E9A1A431E9200260023C9
:102CD00099461D9B9E4264D29F1B02231E9A1A4056
:102CE0000A921E9A134202D0002E00D000274B46B3
:102CF000002B07D022002B000698079901F045F819
:102D000006900791002200230898099901F088F89D
:102D1000002848D1444B1E9A1340049303971C9BF0
:102D20000293069B079C0093019443460C9A5146DC
:102D3000584600F087F8002E00D187E71E9B9B06BF
:102D40003DD54525441C4346020051462800D8473E
:102D50004B46DA179B18534005220592013E049614
:102D6000002203920A3202924A46D00F0190009349
:102D70004346220051465846FFF78BFD0A9B002B25
:102D800000D163E702005F460C9E1D9D54E01C9B32
:102D9000002B9ED00D9B002B9BD01C9B013B1C93BA
:102DA00097E7002799E7069C079D220029008020CD
:102DB0000006844661440B0006920793AAE7652546
:102DC000C0E7C046FFFFEF7FFFFFEFFF01FCFFFF03
:102DD0000000F03FFB799F501344D33FB3C8608B92
:102DE000288AC63F0000F83F61436F63A787D23F40
:102DF00071A379094F930A400000E03F1655B5BB17
:102E0000B16B0240EF39FAFE422EE63FFF030000AD
:102E100000002C4000002440000018402D431CEB13
:102E2000E2361A3F80842E41FFF7FFFF541C4346D1
:102E300051462020B8472200931BAB42F6D3100026
:102E400004E7C046F0B5DE4657464E464546E0B577
:102E500095B00690079193469946209F1E9A1F9B16
:102E60001000190000F0F7FF002831D10122524272
:102E7000BF4B1E981F9900F0D3FF002837D10122C5
:102E80005242BC4B1E981F9900F0E0FF00283DD134
:102E90000022B94B1E981F9900F0D8FF002850D18E
:102EA0000022B64B1E981F9900F0BAFF002848D1A7
:102EB000002200231E981F9900F0B2FF002850D175
:102EC00000239846229B5B0500D4B6E0002458E01E
:102ED000229B0393219B029303230193A84B00930E
:102EE0004B465A4607990698FFF7F3FB0EE1229BE3
:102EF0000393219B029304230193A24B00934B461F
:102F00005A4607990698FFF7E4FBFFE00423229A4C
:102F10001A4022990B4210D09B4B002A0FD004225A
:102F20002299039121990291019200934B465A46AE
:102F300007990698FFF7CDFBE8E0944BEDE70322F5
:102F4000EEE7229B0493219B039302971E9B1F9CF9
:102F5000009301944B465A4607990698FFF768FD7F
:102F6000D4E01E9A1F9B0020002100F0FCFE1E9062
:102F70001F9101239846A5E70CAB30221A55013F5B
:102F800001341F2C01D8092FF6D81E981F9900F084
:102F90008DFF050000F072FF02000B001E981F99C4
:102FA00000F0E1FEFA007A4B9B181A685B680A92FF
:102FB0000B9300F0F3FE0890099100F09BFF0600D0
:102FC00000F058FF02000B000898099900F0CBFEB2
:102FD0000890099100226F4B00F038FF00282ED096
:102FE0000136300000F046FF02000B000A980B99F2
:102FF00000F01CFF002801D001350026002F2CD145
:10300000280000F03BFF02000B001E981F9900F003
:10301000AAFE06000F0000225E4B00F001FF002810
:1030200046D100225B4B3000390000F00FFF002832
:103030003ED1EB073CD501353AE0062746E70022B2
:10304000544B0898099900F0EBFE0028D6D1002EC9
:1030500001D0F307D2D50136D0E7AA461F2C11D8EC
:10306000013F0A21300000F02DFC651C30310CAB13
:1030700019550A21300000F025FC092E0ED9060052
:103080002C00EBE755461F2C0CD87B1E002F09D0D7
:103090000CAA302111551F000134F4E72B005546CE
:1030A0001C00F0E71F2C03D80CAB2E221A5501345C
:1030B0001F2C10D80A21280000F0D8FB661C3031E4
:1030C0000CAB19550A21280000F0D0FB051E01D0D9
:1030D0003400EDE734000323229A1340012B1CD067
:1030E0001F2C06D84346002B32D00CAB2D221A558C
:1030F0000134229B0393219B029301940CAB009318
:103100004B465A4607990698FFF7E3FA15B0F0BC0C
:10311000BB46B246A946A046F0BD219B002B13D06A
:103120004346002B02D10C3313420FD0219B013BAD
:103130002193190003E00CAB30221A5501348C4264
:10314000CED21F2CF7D9CBE72199F8E72199F6E7E2
:10315000229B5B0704D50CAB2B221A550134C8E720
:10316000229B1B07C5D50CAB20221A550134C0E7A2
:10317000FFFFEFFFFFFFEF7F65CDCD4165CDCDC1F7
:103180008CB8001090B8001084B8001080B80010FF
:1031900078BA00100000E03FF0B5DE4657464E46D4
:1031A0004546E0B593B082468B4690461193002980
:1031B00000D1EBE200275546119B1878002800D17A
:1031C000E7E2252809D07C1C43463A005946A84727
:1031D000119B013311932700EEE701331193002473
:1031E000119A11780B00203BD8B2102803D8830025
:1031F000D048C3589F460B00303BDBB2092B2CD97B
:103200002A292FD000230A93119B1A782E2A39D00D
:1032100000239A46119A1378683BD9B2122976D8BE
:103220008B00C549CB589F4601231C4301321192A4
:10323000D6E702231C4301321192D1E704231C4339
:1032400001321192CCE708231C4301321192C7E7E7
:1032500010231C4301321192C2E711A8FFF727FA8D
:103260000A90D1E71C9B1A1D1C921868002804DBE9
:103270000A90119B01331193C6E702231C4343427A
:103280000A93F6E78022D20014435A1C11925A780E
:103290001300303BDBB2092B04D92A2A07D00023C4
:1032A0009A46B7E711A8FFF702FA8246B2E71C9BDD
:1032B0001A1D1C921868002804DB8246119B0133FA
:1032C0001193A7E70020F8E780235B002343511CFC
:1032D000119152786C2A01D01C0018E0C0239B0089
:1032E0001C430131119112E080232343511C1191A1
:1032F0005278682A01D01C0009E0C0231C43013128
:10330000119104E080235B001C4301321192119B58
:1033100018780300253BDAB2532A00D92CE2930037
:10332000864AD3589F4680239B001C43013211924A
:10333000EDE780235B001C4301321192E7E7782818
:1033400009D0582838D06F2838D0622838D01023B8
:103350009C430A2600E01026582833D0692803D061
:10336000642801D00C229443630501D501229443C3
:1033700069282AD0642828D0A30500D59FE0E3055A
:1033800000D5B8E0630600D4CAE01C9A111D1C9158
:103390001168FF220A4005940A9B04935346039345
:1033A000029600230193009243463A0059462800B2
:1033B000FFF76FFA070027E01026CDE70826CBE7D6
:1033C0000226C9E720221443C8E7A30520D4E30559
:1033D00050D4630666D51C9A111D1C911168FF22FA
:1033E0000A40D317D118594005940A9B04935346B9
:1033F00003930296D20F0192009143463A00594638
:103400002800FFF746FA0700119B01331193D3E61A
:103410001C9BDA1D07218A43110008311C91116899
:1034200053689C46DB170C930D930C9A0D9B100070
:1034300048400E90624653400F930E980F990C9A95
:103440000D9B801A99410E900F9108940A9B079347
:10345000534606930496002305936346DA0F0292BF
:103460000090019143463A0059462800FFF76FFA51
:103470000700C9E71C9A111D1C911268D317D118B7
:10348000594005940A9B0493534603930296D20F26
:103490000192009143463A0059462800FFF7F9F996
:1034A0000700B1E7230605D51C9A111D1C910023C6
:1034B000D25E96E71C9A111D1C91126891E71C9B25
:1034C000DA1D07218A43110008311C9108940A9BD8
:1034D00007935346069304960023059302931368BB
:1034E00054680093019443463A0059462800FFF778
:1034F0002EFA070088E71C9A111D1C9105940A9B5F
:103500000493534603930296002301931368009398
:1035100043463A0059462800FFF7BBF9070073E716
:1035200023060DD51C9A111D1C9112681204120C51
:1035300031E7C04698B80010DCB8001028B9001078
:103540001C9A111D1C91126825E746281AD01C9B55
:103550000733072293431A0008321C9204940A9AF4
:103560000392524602925C681B68009301944346A2
:103570003A0059462800FFF765FC0700119B01330C
:10358000119319E620231C43E1E7672801D047285F
:1035900002D180231B011C43452801D0472801D1BB
:1035A00020231C431C9B0733072293431A00083235
:1035B0001C9204940A9A0392524602925C681B6819
:1035C0000093019443463A0059462800FFF730FA29
:1035D0000700119B01331193EEE502231A002240EC
:1035E000924623421FD001241C9B1A1D1C927A1C58
:1035F0009146187843463A005946A8475346002B4F
:1036000016D1119B013311934F46D5E5561C434605
:1036100059462020B847230032005C1C9D42F5D853
:103620003D001700E0E701233A002F000A9DF4E770
:103630004A46A9460A9D06E0571C434659462020A3
:10364000C84734003A00661CA542F5D84D4691465D
:10365000D7E71C9B1A1D1C921B6899465346002BEA
:1036600000D1013B4E4601E0013613003278002ABA
:1036700002D05A1E002BF7D14B46F21A109280232B
:10368000DB0026001E401C4203D0524501D95346A0
:10369000109302231A0022400B92234205D03A00D5
:1036A00037004C46A946554620E03A00109B5F463D
:1036B000B3462E0006E0551C434639002020B04793
:1036C00023002A005C1C0A999942F4D835005E4612
:1036D000BB46109437004C46A946554606E01D00EF
:1036E0000134561C43465946C8473200207800280A
:1036F00004D0002FF4D06B1E002DF0D117004D46E2
:103700000B9B002B03D1119B0133119354E50A9FAE
:10371000109B06E0561C434659462020A84723002C
:1037200032005C1C9F42F5D81700ECE721231C43B4
:103730001C9B1A1D1C921B6800930594082304937C
:1037400053460393102302930023019343463A0008
:1037500059462800FFF79DF80700119B013311938C
:103760002AE57C1C43463A0059462520A847119B70
:103770000133119327001FE57C1C43463A0059464C
:10378000A847119B01331193270015E50A4B9A4670
:1037900010E5AA46474502D343465A1E00E03A00C8
:1037A000434659460020D047380013B0F0BCBB4612
:1037B000B246A946A046F0BD9F2600100EB410B533
:1037C00085B0010007AC08CC03940122009452425A
:1037D0000348FFF7E1FC05B010BC08BC03B0184774
:1037E0009726001000B585B0029003910121009347
:1037F00013004A4202A90248FFF7CEFC05B000BD03
:10380000A126001001480421014B18473003002075
:103810003538001010B5010018231B8814221088B9
:10382000984710BD10B5010018231B881622108878
:10383000984710BDF0B5C64600B507000E0000253C
:103840000123984600E00135B5420AD2AC003C198C
:103850002068FFF7DFFF20600028F4D1002398469E
:10386000F1E7404680BCB846F0BD0000144A936FB3
:103870009B0815D29066D166002905D0FFE7FFE7C7
:10388000FFE7516F106F704704B580210906C2171A
:103890005140002800D0C84307F0B2F9002104BD10
:1038A000936F5B08FDD3F0B5946ED56E576F166FAE
:1038B000FFF7E0FF9466D56657671667F0BD000016
:1038C000000000D0134A936F9B0813D21066516614
:1038D000002905D0FFE7FFE7FFE7516F106F704742
:1038E00004B5002801D00020C04307F089F9002169
:1038F00004BDC046936F5B08FDD3F0B5946ED56EE2
:10390000576F166FFFF7E2FF9466D5665767166725
:10391000F0BD0000000000D094464E4A926F92081D
:10392000624601D230E0C046F0B54A4EB56F6D0830
:10393000FCD3346E756E776F366F00F025F89446C1
:10394000444A14665566576716676246F0BDC0461E
:103950009446404A926F9208624601D258E0C046AF
:10396000F0B53C4EB56F6D08FCD3346E756E776F55
:10397000366F00F04DF89446364A14665566576720
:1039800016676246F0BDC046002B24DB11D000292B
:103990003EDA00B5C943404200D1013100F038F8A9
:1039A000C943404200D10131DB43524200D10133CF
:1039B00000BD002AEBD1002801D1002905D000204C
:1039C000C90FC90701D1C043410800B507F010F97C
:1039D0000022002300BD00B500290ADBDB43524270
:1039E00000D1013300F014F8C943404200D1013145
:1039F00000BDC943404200D10131DB43524200D1F6
:103A0000013300F005F8DB43524200D1013300BD21
:103A1000002923D1002B18D1002A0CD0BC460D4F11
:103A200038667A6600210023FFE7FFE7FFE77A6F39
:103A3000386F67467047002801D00748010000B57D
:103A400007F0D6F80022002300BD02000B00002082
:103A500000217047000000D0FFFFFFFF002B00D0C7
:103A6000BDE0130C26D1002AE7D080B4104F396690
:103A70007A66FFE7FFE730B4040C7B6F396F1B04F5
:103A800023433B66FFE7FFE7FFE7C04684B27B6F57
:103A90003D6F1B0423433B66FFE7FFE7C04600235F
:103AA0002C042D0C7A6F386F00196941B0BC704737
:103AB000000000D0F0B594460025140E01D112028A
:103AC0000835140F01D112010435940F01D1920071
:103AD0000235D40F01D152000135D40B0134254FEA
:103AE0007C66254C3C660E0C93B2FFE7FFE7FFE7D0
:103AF0003C6F6643360C7703BE467343DF0B5B04B3
:103B0000C01AB941130C7343DB18C91ACE086643B7
:103B1000360CB64493B273431F0F1B01C01AB94150
:103B2000130C73431F0B1B05C01AB941860D8F027E
:103B30003E436643360C092D24DB520A7243801A39
:103B40007703460A6643360C16235B1BDE40DF40D4
:103B5000BF1964466643821B704604350633010074
:103B6000D940A840C01900D30131A24206D2002397
:103B7000F0BD0000000000D0FFFFFFFF121B01306E
:103B8000F3D3F1E709277F1BFE406446A2B27243DC
:103B9000801A00D20139220C7243130C1204821ACB
:103BA00099410B007046043513370100F940A840D5
:103BB000801900D30131002B02D1A2420AD2F0BDFC
:103BC000013000D30131121BFAD2013BF8D1A242DD
:103BD00000D2F0BD013000D30131121BF7E7F0B580
:103BE0001C0C00D080E00CB400251C0A04D11B0280
:103BF000160E3343120208351C0B04D11B01160F9D
:103C00003343120104359C0B04D19B00960F3343C0
:103C100092000235DC0B02D192185B4101351C0089
:103C2000971864410134464F7C66464C3C660E0C46
:103C3000FFE7FFE7FFE7C0463C6F6643360C7703BC
:103C4000BE4697B27743C01B00D20139C01B00D2D9
:103C500001399FB27743C91BC91B170C77437E04F8
:103C6000FF0B801BB941CE086643360C0C2D33DBAD
:103C7000B644120B1F053A431B0B97B27743C01B88
:103C800000D201399FB27743C91B170C77433E041A
:103C90003F0C801BB941860D8F023E4366432927A6
:103CA0007F1BFE400C3D7746AF40BF1930BCA2B22F
:103CB000ABB272437343801A9941220C7243130CC6
:103CC0001204801A994102000B000137001BA94120
:103CD000F9D2781E0021F0BD0C277F1BFE407746ED
:103CE0007F0BAF40FF19E0E700245D1C07D0144FA5
:103CF0007D663966FFE7FFE7FFE7FFE73C6F95B2B8
:103D00009EB265436643401BB141150C1E0C6543D2
:103D1000664336042F0C3E432D04401BB1419942AB
:103D200004D202000B0020000021F0BD01D190421E
:103D3000F7D3801A994101349942F2D3F6E7000093
:103D4000000000D0FFFFFFFF44464D4656465F4649
:103D5000F0B47047F0BCA046A946B246BB467047D7
:103D600048404140484018B4114B5B68FC46019301
:103D700008BD04DF0B44001018B40D4B1B68FC4653
:103D8000019308BD00DF1544001018B4084BDB6830
:103D9000FC46019308BD0CDFCD46001018B4044B5F
:103DA0009B68FC46019308BD08DF714500100000C8
:103DB0001C6B0020FFB550404240504059404B40E2
:103DC000594000E0FFB5154F4C00640D03D0BC42D4
:103DD00004D10C0314D80020090D09055C00640D02
:103DE00003D0BC4204D11C030AD800221B0D1B05C2
:103DF00001264B4009D44B4003D58B4200D182426F
:103E0000FFBD9942FCD19042FFBD0B43DB18034339
:103E10001343F5D0C9434918FFBD0000FF07000058
:103E200000B5FFF7CFFF804100BDC04600B5FFF7EA
:103E3000C9FF01D9002000BD012000BD00B5FFF77A
:103E4000B9FF01D9002000BD012000BD00B5FFF77A
:103E5000B1FF804100BD012040054A00121804D87E
:103E60005A00121801D80020704701207047002026
:103E7000704700000021002805D17047C117484055
:103E8000401AFAD0C90713B5064B1B6898470CBCFB
:103E9000441CA2401005120B0349091B09051943D4
:103EA000114310BD1C6C00201F04000010B54C0015
:103EB000620D8023D218DB00D21A5B057E2A10DD4A
:103EC0009E3A13DACC170903490819435242D140EC
:103ED000640001341532202A05DAD04008436043DB
:103EE00010BD002010BD0846604310BDC80FC018AB
:103EF000013810BD18B4044B5B6AFC46019308BD41
:103F000024DFAF4A001000001C6B002018B4044BE3
:103F10001B6EFC46019308BD60DFBB4B0010000028
:103F20001C6B002018B4044BDB6FFC46019308BDEA
:103F30007CDF454B001000001C6B002018B4044BC4
:103F40009B69FC46019308BD18DF994800100000EA
:103F50001C6B0020024A034B00B500F031FA00BD93
:103F6000182D4454FB2119408A0002D3920D092ACE
:103F700008DA18B4064BDB6BFC46019308BD3CDF46
:103F8000EF4C001000B5FFF7E5FF04BC9646F0E7E4
:103F90001C6B00208A0002D3920D092A08DA18B49B
:103FA000064B1B6CFC46019308BD40DFFF4C001024
:103FB00000B5FFF7CFFF04BC9646F0E71C6B00206E
:103FC00070B513231C78012C0FD0012C0FDC022CB0
:103FD00002DC1D4A1D4B9A6470BD99001A481B4AA9
:103FE000885001331F2BF8D9EFE70023FAE7184870
:103FF000FFF718FC05001748FFF714FC0238037898
:104000009B007F2B19DD80222900104801F092F9D6
:10401000022CDCD1104B1A88B5231B029A4209D11D
:104020000E4B1A880E4B9A4204D10E4B1A880E4B37
:104030009A42CCD00020FDF707FF0C4B0C4A3021F0
:104040000C48FDF7E3FEC046D14300101C6B002076
:10405000534400005346000054380000D838000094
:10406000494600009C38000059460000C8BA0010BC
:1040700068BB001028BB0010F0B5DE4657464E4620
:104080004546E0B585B004000D00009201930E9BFB
:104090009A46002B09DD019B191101204042FFF7D0
:1040A00011FC039000239B462CE000230393F9E7C7
:1040B0000C239946AB11039A53431D224946521AC9
:1040C000134101335B109846202252428B1821D4B1
:1040D00022009A40170023004A4693401E004346A0
:1040E000D917009A019B404600F08AFF34003D003A
:1040F000241A8D415B464A46934043449B465346AF
:104100009B1A9A465346002B0EDD53460C2BCFDCF0
:10411000D146CFE720235B1A2200DA4013002A00A1
:104120008A4017001F43D6E7009A019BAB4209DC87
:1041300001D1A24206D8009A019BA41A9D410123F5
:104140009C46E344009A019BAB4209DC01D1A242A8
:1041500006D8009A019BA41A9D4101239C46E34482
:10416000002D0FDB002D16DB0F9B002B01D05A46D4
:104170001A602000290005B0F0BCBB46B246A94633
:10418000A046F0BD009A019BA4185D4101235B424B
:104190009C46E344E6E7009A019BA4185D41012395
:1041A0005B429C46E344DFE7F0B5C64600B5060037
:1041B0000F000B0D5B055A0D002B27D01F4BD2189B
:1041C0002CD43424A31A9846002B24DD203B9C4693
:1041D00029D401256446A5402B0001254446A5406D
:1041E0002A0001246442E517A4185D41002903DA7E
:1041F00024184D4126002F00002554429D413300D4
:10420000234018003B002B40190004E00022C90F96
:10421000CB071000190080BCB846F0BD002909DAB0
:1042200000200749F7E720254346ED1A0124EC401A
:104230002300D2E700200021EDE7C04601FCFFFF8C
:104240000000F0BFF0B5C64600B58AB007900F0079
:1042500011001A00FE0F3B0D5B055B0D3D032D0B9E
:1042600080246403049025430595D50FA846150DB9
:104270006D056D0D1203120B029114430394109AF5
:10428000002A02D0002210990A604A4A934200D1C3
:104290007DE0002D00D17DE0002B00D182E0954231
:1042A00000D182E06A1E9A4200DD80E044D0002EF8
:1042B00006D0049E059F00227142BA4104910592E6
:1042C00009AA01925B1B0093029A039B049805992B
:1042D000FFF7D2FE06000F0003000C009B197C4183
:1042E0002200029803998C420BDC01D1834208D84A
:1042F00002998B420CD1039B9A4209D1099BDB079F
:1043000006D5029B039CF61AA741099B013309932A
:104310004346002B02D0099B5B420993109B002B64
:1043200001D0099A1A60244A521B30003900FFF765
:10433000EDFD06000F002FE0039B059999420FDD6C
:10434000002E17D1029C039D24196D4104980599F4
:10435000001BA94106000F00012309931500D7E7B0
:10436000029B039C0598A04202D104999942E7D888
:10437000079E11E0029E039FB6197F41049B059C96
:10438000F61AA74101235B4209931500C0E70026F6
:104390000A4F01E00026094F300039000AB080BC06
:1043A000B846F0BD00260027F6E7079EF4E7079E13
:1043B000F2E7C046FF070000330400000000F07F72
:1043C00010B582B000240094FFF73CFF02B010BD8E
:1043D00007B56046002800D100BE01880A0A0230F5
:1043E000DF2AFAD1C9B2820804D3028840880004C7
:1043F000104300E00068024A5050039007BD0000DF
:104400001C6B00200FB403BC0CBCF0B50124E40706
:10441000634000E0F0B50C0DCF0F661E3605891B1A
:10442000640503D3C943404200D30131640D03D076
:10443000661CF60A07D0E41B00207F00791C890760
:104440008912803C24031D0DDF0F6E1E36059B1B59
:104450006D0503D3DB43524200D301336D0D03D00E
:104460006E1CF60A07D0ED1B00227F007B1C9B0709
:104470009B12803D2D032F1B661B58D4A446202E73
:1044800046DA20371400BC401D00BD40F2403341E5
:104490002A4380185941CB0F05D0C943C04300229D
:1044A00064425041514162464D0D28D10D0D07D156
:1044B00000281FD0241940414941013A0D0DF9D07F
:1044C000640006D3013000D30131002C01D1400833
:1044D0004000013A0BD4941CE40A04D112051144A3
:1044E000DB071944F0BDD907204B194300E0D90779
:1044F0000020F0BD0029DDD1002CDBD1F0BD013260
:10450000C6074008CD0728434908002EE1D0D9E767
:104510003C2E29DA203E40371400BC4000D0012454
:10452000F24014431A00BB401C43D317ACE7AC461F
:10453000202F08DA20360400B4400D00B540F840C2
:1045400039412843A5E73C2F0CDA203F40360400D0
:10455000B44000D00124F84004430800B1400C43AB
:10456000C117EAE710001900002494E70000F07F6B
:10457000F0B50C0D661E3605891BE60A6405640D50
:1045800002D0651CED0A04D0002001210905803C01
:104590002403A4461C0D671E3F05DB1BE70A6405C8
:1045A000640D02D0651CED0A04D0002201231B0516
:1045B000803C24037740644497B484B296B2744339
:1045C000070C7E43150C6F4380B26843361802D344
:1045D000012000043F183004350C00197D41844649
:1045E00088B29AB250430C0C62431F0C7C438EB2CB
:1045F0007E43921902D301263604A4191604170C1F
:104600003618674101BC81B29AB25143040C62432F
:104610001B0C5C4380B25843121802D301200004E3
:1046200024181004130C401863412D185E4100201B
:10463000474106BC88B293B258430C0C6343120C3A
:10464000544389B251435B1802D301210904641811
:1046500019041A0C091862416D185641002047418F
:1046600018BCF902720D1143F0026A0D1043ED02FD
:104670000A0D03D16D1940414941013B124E9B1B6C
:104680007600B3420ED26D0007D30130002671418F
:104690006646354301D1400840001B05C918E407B0
:1046A0002144F0BD0BDA013306D1013004D10131D0
:1046B0004F0D01D04908F2E7E1070020F0BD0136B7
:1046C00031050020EBE70000FF030000F0B51C0DF2
:1046D000671E3F05DB1BE70A6405640D02D0661CFC
:1046E000F60A04D0002201231B05803C2403D025B8
:1046F0002D060026F6432E661E096E66CE0FF619AD
:10470000B44649004F0D02D07E1CF60A03D00020AB
:104710000021403F3F033E1BB600B444013F7F05EC
:10472000C91B49082E6F013676089C02950D25435A
:104730007543ED137543AD1301356D10F603761B0C
:104740000CB4CC02450D2C43A2B2B3B25A43270C91
:104750007B43350C6F43A4B26C431B1902D3012475
:1047600024043F191C041D0CA4187D4124196D411B
:10477000009A91B2ACB26143170C7C432B0C5F439F
:1047800092B25A43A41802D301221204BF18220481
:10479000230C52187B41019C6C431B19520ED9010A
:1047A0000A434401A01A81B2B2B2514303145A43DE
:1047B000360C734387B27743D617D21900277E4150
:1047C00036049B191704160C7F185E417316ED18FA
:1047D000F301002680337541A90F06D16400690AF0
:1047E000E8055B0A184309D22FE004229444803381
:1047F0007541A90AA8059B0A184326D3404149419F
:104800002404009A019B0D005543641B4343E41AA2
:1048100095B286B27543170C7E43030C5F4392B288
:104820005A43B61802D301221204BF183204330CC3
:1048300052197B4152429C41002C02D4002201308B
:1048400051414008CA071043490802B06246D707E1
:104850009210084BD218084B9A4203D212058918BD
:10486000C919F0BD0020002A01DC3900F0BD013378
:104870001905F5E7FD030000FE07000007DA002137
:1048800007E0C90FC907520D03D0C91201E04C4916
:10489000090500207047C0464A00F2D2520D013A85
:1048A000484B9A42EAD2F0B51405091B520801D3CD
:1048B000001849419B08D2181205944640A44A0C9E
:1048C000A25C0B09534353431B1353435B13120264
:1048D000D21A13005B435B0B4C086343DB13534357
:1048E000DB1501335B10D21A130CD21A13005B4391
:1048F0008902840D21438DB29EB275430F0C7E4315
:104900001B0C5F438CB25C43361902D30124240490
:104910003F193404330C64197B419D01A40E2C43D0
:104920002034A5B25543241454432D0C6419A4110A
:10493000D203121B95B28EB27543170C7E430C0C3A
:10494000674393B26343F61802D301231B04FF1895
:104950003304340C5B197C41DB186441DB18002301
:1049600063419EB276439DB21F0C7D437F436C042E
:10497000ED0BA4197D4106028F08361BAF417D0760
:10498000F6086E41B4B295B26C4337147D43120CF5
:104990005743B6B25643EA17AD19002672411204C6
:1049A000BF182E042A0C36197A410832521117D238
:1049B0009D0A9C05D117101969416144F0BD0000A2
:1049C000FF070000FE070000F8EBDFD6CDC5BEB83C
:1049D000B2ADA8A4A09C9995928F8D8A8885838179
:1049E00052415D0ADC05D11714194D412B00634378
:1049F000A6B27643A2B2270C7A437F435104D20B6E
:104A000089197A41D218D21880054942904102D4BE
:104A1000002301345D4160086908ED0728436144C3
:104A2000F0BDC046624618CA94465A46002A20DBAA
:104A300004E0624618CA944600291ADAC018614197
:104A40005B463B415C46B4405246FA4022434446F2
:104A50004D4662416B41904699462B46B3403D41DD
:104A6000FC401C4352465B46A241AB4192469B46EA
:104A70007047C01AA1414B463B414C46B4404246A8
:104A8000FA40224354465D4662416B4192469B4642
:104A90002B46B3403D41FC401C4342464B46A2419D
:104AA000AB41904699467047002000217047002294
:104AB00000B5203200F011F8080000BD002200B55A
:104AC00000F00DF8CA179A4200D100BDD843012169
:104AD000C907414000BD000000220B15E4D410B509
:104AE000944600F0A5F81414013400DA0021CB1725
:104AF000134C20476244343A0CD40C2A07DA0400E1
:104B00009140904052422032D440214310BDD843BE
:104B1000D94310BD203207D40C4694405242203273
:104B20001141D040204310BD0800C917203203D4E2
:104B300052422032104110BD1800190010BD000073
:104B4000F54A00104A00520D144BD21A13DDFF2A09
:104B50001EDAD205CB0FDB071A43C300400F09034F
:104B6000490A084310435B0001D301D0013070476C
:104B70004308FBD2704702D0C80FC00770470A0332
:104B800012130132F8D1420F072AF5D1012200E0B9
:104B9000FF22C80F00028018C00570478003000084
:104BA00000210A00002104E000210A00C11704E0EE
:104BB0000022002306E0C0460022CB17584059408F
:104BC000C01A994130B5184CA21A002903D101002E
:104BD00010D00020203A4C1512D104D2013A00180E
:104BE00049414C0DFAD3114CA24204D21205891846
:104BF000DB07C91830BDD243520D00200021F5E774
:104C000003D4013A00184941FBD50B324405C00AD0
:104C10004D052843C90A640003D000246041614166
:104C2000E1E7E0D34408F8E732040000FE070000A3
:104C30000A0DCC0F531E1B05C91A520503D3C943D5
:104C4000404200D30131520D03D0531CDB0A07D080
:104C5000121B00206400611C89078912803A12032C
:104C6000014BD21A70470000FF030000023225D426
:104C70000C2A1CDA1125AD1A0B002B41083207351E
:104C80000600EE40904091403143F0CC63431A154A
:104C900000235A41554356435743BF02F412760549
:104CA00076196741ED177F19801BB94170470C22B7
:104CB0000020C917490001310905DBE70902030E8D
:104CC000194300025342203208D40C001941944089
:104CD000D840204300225041514170470800C91775
:104CE000203B2032F1D50020002100227047F0B592
:104CF000FFF72AF800F00EF800F030F806E0F0B503
:104D0000FFF722F800F006F800F046F8FFF722F867
:104D1000F0BD000000B5FFF78BFF30A4FFF7A6FF42
:104D200000242C4D2C4ED20702D3F6436D4266412F
:104D3000520004D2A246A346A846B14603E0A046CC
:104D4000A146AA46B3466EA4A44601271F26FFF734
:104D500070FE0137013E212FF9D100BD594684B2C2
:104D60008DB26C43061475430B145E4382B25A43F2
:104D7000AD18EA1700D7D2431204B6182A042B0C38
:104D800012197341404649469D009B17920F2A43D2
:104D9000904199413E2210E7494684B28DB26C435E
:104DA000061475430B145E4382B25A43AD18EA17DA
:104DB00000D7D2431204B6182A042B0C12197341DF
:104DC000504659469D009B17920F2A435041594126
:104DD0003E22F2E6BB4DF09DC556F6367D510000F1
:104DE0001A61140085880A00FB211900F0B5FEF74E
:104DF000ABFF404D0C002C4001D0AC4202D1090D5C
:104E0000090500201C002C4001D0AC4202D11B0D32
:104E10001B0500220026ED02002B04D502266B4064
:104E2000694000D476424F1904D599420CDD013611
:104E3000694003E0BB4207DA013E6B400700100007
:104E40003A000F0019003B0040B4002A0FD1002B9C
:104E50000AD05C006415013409D14C00641501349A
:104E600002D10139013B02E0002000212EE0FFF7D2
:104E70002DFC3E22FFF723FE82468B4600200021B8
:104E800080460122920791461DA4A44601271F26B1
:104E9000FFF7C8FD0137013E212FF9D14A4653469D
:104EA0000C3A01246407002752081B0005D49341E3
:104EB000001979416408F7D104E05341001BB9415E
:104EC0006408F1D1CE0749104008304340BC002EA1
:104ED0000AD0094C094D01D5E443ED43F60701D151
:104EE00000196941001969413D22FFF766FEFEF78E
:104EF00031FFF0BD0000F07F8D305A88A8F64332B4
:104F0000694FBB610567AC1DB16E4096FCBAAD0F31
:104F100072DB0BABA66EF50739BD9FE576ABFE03E2
:104F20004B6297BA5BD5FF01D694DBDDAAFAFF008E
:104F30005DEAEE5655FF7F006E77B7AAEAFF3F00A5
:104F4000BCBB5555FDFF1F00DEADAAAAFFFF0F0039
:104F50006F5555F5FFFF0700ABAAAAFEFFFF030040
:104F60005555D5FFFFFF0100ABAAFAFFFFFF000078
:104F70005555FFFFFF7F0000ABEAFFFFFF3F00003A
:104F800055FDFFFFFF1F0000ABFFFFFFFF0F0000FD
:104F9000F5FFFFFFFF070000FFFFFFFFFF0300001B
:104FA00000000000000200000000000000010000FE
:104FB0000000000080000000000000004000000031
:104FC00000000000200000000000000010000000B1
:104FD00000000000080000000000000004000000C5
:104FE00000000000020000000000000001000000BE
:104FF00000000080000000000000004000000000F1
:1050000051434343C9188C46110C83B24B4310B42F
:10501000040C614392B280B2504362431C041B0CE7
:10502000001910BC59411304120CC01851416144BD
:105030007047000048404140484000239C46094BCF
:105040005B68184700239C46064B1B6818470023E3
:105050009C46044BDB68184700239C46014B9B6829
:1050600018470000206C002007B5484041404840E8
:1050700001E0C04607B54200120E03D0FF2A03D15B
:10508000420218D8C00DC0054A00120E03D0FF2AF4
:1050900003D14A020FD8C90DC9050122414005D4E8
:1050A000414001D5814207BD884207BD01434918EF
:1050B00001D0C043001807BD00B5FFF7DBFF8041FA
:1050C00000BDC046491A002808D1084670470000B4
:1050D000C10FC90700D54042002817D0F44603B4D9
:1050E0000B4B1B68984706BC81409E38404280317C
:1050F00007D20B0607D04900490AC00510430843F0
:1051000060470130F8E7490A8902F5E77047000077
:105110001C6C0020054A10470029FBD0044B5B6E35
:10512000FC46184764DF795200100000C55000109B
:10513000206C0020034BDB6FFC4618477CDFBD5220
:1051400000100000206C002070B513231D782A4841
:10515000FEF768FB0400012D11D0012D09DDA31E0F
:105160001B789B007F2B40DD80222100234800F02C
:10517000E1F82348FEF74EFB224B186070BD542225
:1051800001001E4800F0D6F81F4B1A881F4B9A42A8
:105190001CD1A7239B011A881D4B9A4216D11D4B87
:1051A0001A881D4B9A4211D11C4B1A8894239B01DB
:1051B0009A420BD11A4B1A881A4B9A4206D11A4BB3
:1051C0001A681A4B9A4201D1152307E01848FCF7D8
:1051D0003BFE99001748094A885001331F2BF8D924
:1051E000144A064B1A62DA61B7E7134B134A42219D
:1051F0001348FCF70BFEC04653460000206C00200D
:105200004C3300001C6C0020EE290000C40F00008D
:10521000C20D0000962B0000C0B50000182B000046
:10522000CC2A000010B50000FC2C000051ED876472
:1052300030C30010455200107CBB0010ECBB0010C6
:10524000B0BB001007B56046002800D100BE018841
:105250000A0A0230DF2AFAD1C9B2820804D30288CE
:1052600040880004104300E00068024A5050039058
:1052700007BD0000206C0020002230B5002906D5B3
:10528000CD0705434808013A10E0002230B505007B
:105290000D430FD0CD170C16AC4205D1C901440EF9
:1052A0002143C0010732F6E70500080052423D32B3
:1052B0000149884730BD0000EF290000C30FDB071C
:1052C00041000A0E07D0FF2A08D00909054A8918AB
:1052D0001943400770471900002070470249C91858
:1052E000FAE70000000000380000F07F10B504006D
:1052F00004F068F8002804D00419034B9C4200D83D
:1053000010BD0248FCF7A0FD0000042000BC001006
:1053100010B504F061F810BD01480421014B184795
:105320004003002035380010014B1B68184700006F
:1053300040030020014B5B68184700004003002039
:10534000F8B507000D001600437C002B02D00024A6
:1053500000200CE003681100280098472DE03B7CFA
:1053600010E0022115483B689847601C0134B442A4
:1053700014DA002CF3DD2B19013B1B780D3B5A424C
:105380005341DBB22A5D0A2AF0D1002BEED1A042B4
:10539000E7DA211A28183B689847E2E7B04203DAB7
:1053A000311A28183B689847002E06DDAD19013DDB
:1053B0002B780D3B5A4253413B74F8BD80BC001022
:1053C000F0B5CE4600B582B006000F0091460193BD
:1053D00024E0A368002B04D039003000984700284F
:1053E00023DCE468002C06D0124D2D68002DF0D08F
:1053F000A542F6D1EDE701990A000F4B5B6A99428D
:1054000009D80D49896A49450BD29A4201D0012336
:1054100002E0002300E00023002B04D1074B1C68AE
:10542000E0E70123F8E70120404202B080BCB94622
:10543000F0BDC04658120020004005405012002028
:1054400070B505000368002B16D00C4B1C6805E0F6
:10545000290004C92000FFF773FFE468002C09D07D
:105460002368002BF9D0064B1B68002BF0D0A34219
:10547000F3D1EDE700232B6070BDC0465012002031
:105480005812002070B505000C000B68802B05D069
:1054900021684B1C23606418257170BD0800FFF75C
:1054A000CFFFF5E710B582B0D0231B061C6801A919
:1054B000064805F0ADFB002806D1019BA34203D0AE
:1054C000024805F0B5FB012002B010BDE80B00203A
:1054D00010B5024805F084FB10BDC046E80B002063
:1054E000F0B5C64600B582B006000D001700FFF704
:1054F000D9FF80466B1C02D0184B1C6805E03000B9
:1055000004F084FA0500F7E7E468002C18D023685B
:10551000002BF9D0124B1B68002B01D0A342F3D112
:105520002A0031002000FFF70BFF002FECD06B4664
:10553000D91D0A230B7001222000FFF701FFE3E7CA
:105540004346002B06D16B1E9D41E8B202B080BCE1
:10555000B846F0BDFFF7BCFFF5E7C046501200208B
:105560005812002010B5030008001100002B05D1CF
:10557000044B1A685B68FFF723FF10BD012040420F
:10558000FBE7C04690B2001010B50B0014000128D4
:1055900006D1002221001800FFF7A2FF200010BD55
:1055A00001204042FBE700000C4B1A68130001E0A9
:1055B0001A00DB68002B08D08342F9D1002903D1FF
:1055C000DB68D3600023C36070470029FCD0002A49
:1055D00001D0D060F8E7014B1860F5E750120020C9
:1055E00010B5064B1C6801E09847E468002C03D016
:1055F0006368002BF8D1F8E710BDC04650120020B8
:1056000070B5050004F002FA040001220100280030
:10561000FFF766FFFFF7E4FF200070BD70B5A2B092
:1056200004000E00FFF73EFF05008422002101A8C0
:10563000FFF77AFE3300220001A90848FEF7D2F8EE
:10564000040001A8FFF7FCFEFFF7CAFF002D02D1FE
:10565000200022B070BDFFF73BFFF9E78554001032
:105660000FB400B583B004A901C90191FFF7D6FFBB
:1056700003B008BC04B0184710B500F087F800F07C
:10568000CDF910BDF0B583B005000E0000240FE089
:105690006B46D91D0D230B700020002816D193698D
:1056A0009B06FCD40B78136001300131F5E701341F
:1056B000B44219DA0D4B1A682F5D0D4BD3185942BD
:1056C0004B415B000B495B5EBB42E1D06B46D91D91
:1056D0000F7000200028EAD193699B06FCD40B7858
:1056E000136001300131F5E703B0F0BD3C6D0020DF
:1056F0000080FCBF386D0020F0B583B006000F00BD
:10570000002004E06B4607331B7823702800B84262
:1057100015DA0E4B1A6893691024210019401C42B7
:105720000DD1451C34186B46D81D0029EAD1936968
:10573000DB06FCD41368037001310130F5E7002863
:1057400001D003B0F0BD0338FBE7C0463C6D00203C
:1057500070B515001C000B4B1860FBF717FA002DF5
:1057600006DA002C09DA01210748FFF71DFF70BD9A
:1057700002212800FBF7D8F8F3E702212000FBF70D
:10578000D3F8F0E73C6D00205003002010B5064B25
:105790001B78064B1B78E1210123002249020448B3
:1057A000FFF7D6FF10BDC04678C300107CC30010C1
:1057B0000040034070470000014B00221A70704700
:1057C000476D00204B79FF2B0CD18B79002B0BD12F
:1057D000CB79012B0AD1082A0AD98A78054B1A708D
:1057E000092000E0002070470020FCE70020FAE7D5
:1057F0000020F8E7476D0020012070470120704726
:1058000070B504000D000348FEF704F803002900FA
:10581000200098475542000010B50A794B791B02C9
:105820001343124A1278934201D0002010BD4B78E6
:10583000012B03D0022B11D00020F7E78B78CA7818
:10584000120213431900D30503D54B0A01209840D7
:1058500000E000207F231940FFF7D2FF64220449B3
:105860000020FCF75FFC0120E0E7C046476D002008
:10587000002004200123037000487047C4BC0010BE
:1058800010B50B784878000218438A781204104348
:10589000CB781B0603439622D200934200D010BD62
:1058A00000210800FFF7ACFF30B583B005000C0005
:1058B00001A9184805F0ACF9002808D1D0231B062F
:1058C0001B68019A9A4221D0124805F0B1F90020D4
:1058D00001F0E4FD002807D1032464420D4805F0DF
:1058E0007FF9200003B030BD002001F0FBFD00284F
:1058F00002D103246442F1E722002900002001F0D4
:1059000001FE041EEAD103246442E7E70324644253
:10591000E7E7C046206D002010B50021054805F0DE
:1059200077F9002800D110BD01F064FB014805F0B3
:1059300057F9F8E7206D0020F0B5C64600B582B0F3
:1059400080460D0001A92E4805F062F9002808D113
:10595000D0231B061B68019A9A420FD0284805F0F5
:1059600067F9002001F09AFD002847D1254B00205F
:10597000002118605960224805F032F902B080BC5D
:10598000B846F0BD01F036FB002001F0D3FD002049
:1059900001F084FD0028EED0002001F049FE00282F
:1059A0001DD0AC42E7DA2E1B002001F041FE0200C0
:1059B000864200DC3200002AE4D043461919002058
:1059C00001F01AFE060001F015FB002001F0B2FD07
:1059D000A419FBF771FE0B4B18605960E1E7FBF768
:1059E0006BFE084B1E685F68074A002392197B41D3
:1059F0009942C0D8D5D19042D3D9BCE70024D0E792
:105A0000206D0020080D002020A1070010B51F20E8
:105A1000FCF79AFCFA208000002110BD70B584B01C
:105A20001D4B1B7802F046F81C491F20FCF79CFC1C
:105A300001211F20FCF780FC1948FBF731FFFBF721
:105A40000BFC0600FBF738FE04000D00FA22920062
:105A5000002312196B41994214D811D001210291EF
:105A6000002101910F4900913000FBF70BFC04006D
:105A7000631E9C41E4B2002808D1200004B070BD30
:105A80009042EBD901225242D317E7E701210648A1
:105A9000FFF78AFDF1E7C04680C3001019590010D6
:105AA000206D00200D5A001064030020004870474C
:105AB00090BD0010004870473CBD001010B5002894
:105AC0000BD10F4B0F4A5A80012301335B00C022D8
:105AD000920013430A48038010BD05280ED88000A9
